:100000000C9435000C945D000C945D000C945D0024
:100010000C945D000C945D000C945D000C945D00EC
:100020000C945D000C945D000C945D000C945D00DC
:100030000C945D000C945D000C945D000C945D00CC
:100040000C9480000C945D000C947F010C94CD0105
:100050000C945D000C945D000C945D000C945D00AC
:100060000C945D000C945D00390311241FBECFEF8A
:10007000D8E0DEBFCDBF11E0A0E0B1E0E2E8F8E0FB
:1000800002C005900D92A431B107D9F711E0A4E1A7
:10009000B1E001C01D92A73CB107E1F710E0CAE64C
:1000A000D0E004C02297FE010E943B04C836D1076D
:1000B000C9F70E948F030C943F040C9400000F9327
:1000C0001F9380E00E945C018C0164EF71E080E08E
:1000D00090E00E94C800093C110534F485EA91E0E3
:1000E00060E071E00E9404041F910F91089585EA79
:1000F00091E040E855E260E070E00E940802089557
:100100001F920F920FB60F9211242F933F938F934C
:100110009F93AF93BF938091180190911901A09183
:100120001A01B0911B0130911C010196A11DB11D56
:10013000232F2D5F2D3720F02D570196A11DB11DC6
:1001400020931C018093180190931901A0931A0128
:10015000B0931B018091140190911501A09116019B
:10016000B09117010196A11DB11D809314019093C8
:100170001501A0931601B0931701BF91AF919F9104
:100180008F913F912F910F900FBE0F901F90189558
:100190009B01AC017FB7F8948091140190911501F7
:1001A000A0911601B091170166B5A89B05C06F3FDD
:1001B00019F00196A11DB11D7FBFBA2FA92F982F4D
:1001C0008827860F911DA11DB11D62E0880F991F20
:1001D000AA1FBB1F6A95D1F7BC012DC0FFB7F894C9
:1001E0008091140190911501A0911601B091170111
:1001F000E6B5A89B05C0EF3F19F00196A11DB11D02
:10020000FFBFBA2FA92F982F88278E0F911DA11DF0
:10021000B11DE2E0880F991FAA1FBB1FEA95D1F715
:10022000861B970B885E9340C8F2215030404040B7
:10023000504068517C4F211531054105510571F63B
:100240000895789484B5826084BD84B5816084BD4E
:1002500085B5826085BD85B5816085BDEEE6F0E03F
:10026000808181608083E1E8F0E01082808182609B
:100270008083808181608083E0E8F0E0808181601C
:100280008083E1EBF0E0808184608083E0EBF0E04C
:10029000808181608083EAE7F0E0808184608083F0
:1002A000808182608083808181608083808180689A
:1002B00080831092C1000895982F8E3008F09E50D0
:1002C0009770809102018295880F880F807C892B1E
:1002D00080937C0080917A00806480937A00809182
:1002E0007A0086FDFCCF2091780040917900942F10
:1002F00080E030E0282B392BC901089508951F9222
:100300000F920FB60F9211242F933F934F938F9319
:100310009F93EF93FF938091C00082FD1DC0409199
:10032000C60020915D0130915E012F5F3F4F2F731A
:10033000307080915F01909160012817390771F04A
:10034000E0915D01F0915E01E35EFE4F40833093EA
:100350005E0120935D0102C08091C600FF91EF9184
:100360009F918F914F913F912F910F900FBE0F90C2
:100370001F901895E091B101F091B201E05CFF4F40
:100380008191919120813181821B930B8F739070A9
:10039000892B11F00E947E0108951F920F920FB6D3
:1003A0000F9211242F933F938F939F93EF93FF937B
:1003B0002091A1013091A2018091A3019091A4010B
:1003C0002817390731F48091C1008F7D8093C100D7
:1003D00014C0E091A301F091A401EF59FE4F2081D8
:1003E0008091A3019091A40101968F7390709093D6
:1003F000A4018093A3012093C600FF91EF919F91E8
:100400008F913F912F910F900FBE0F901F901895D5
:10041000AF92BF92DF92EF92FF920F931F93CF9311
:10042000DF93EC017A018B01DD24403081EE580727
:1004300080E0680780E0780711F0DD24D39491E034
:10044000A92EB12CEC89FD89DD2069F0C50108A039
:1004500002C0880F991F0A94E2F7808360E079E078
:100460008DE390E005C0108260E874E88EE190E0D2
:10047000A80197010E94170421503040404050408D
:10048000569547953795279580E12030380720F01D
:10049000DD2011F0DD24D6CFE889F9893083EA899F
:1004A000FB89208319A2EE89FF89408121E030E099
:1004B000C9010C8C02C0880F991F0A94E2F7482BDF
:1004C0004083EE89FF894081C9010D8C02C0880FED
:1004D000991F0A94E2F7482B4083EE89FF894081F7
:1004E000C9010E8C02C0880F991F0A94E2F7482BAD
:1004F0004083EE89FF8980810F8C02C0220F331F59
:100500000A94E2F7209528232083DF91CF911F9151
:100510000F91FF90EF90DF90BF90AF900895DC01B6
:100520001C96ED91FC911D97E05CFF4F219131915C
:1005300080819181281B390B2F733070C901089578
:10054000DC011C96ED91FC911D97E05CFF4F208132
:100550003181E054F040DF01AE5BBF4F8D919C9143
:1005600011972817390719F42FEF3FEF07C08D9126
:100570009C91E80FF91F8081282F30E0C901089570
:10058000DC011C96ED91FC911D97E05CFF4F2081F2
:100590003181E054F040DF01AE5BBF4F8D919C9103
:1005A00011972817390719F42FEF3FEF10C08D91DD
:1005B0009C911197E80FF91F20818D919C911197C3
:1005C00001968F73907011969C938E9330E0C901C1
:1005D0000895DC0191968C919197882339F0549677
:1005E000ED91FC915597808186FFF9CF91961C92F1
:1005F0000895CF93DF93EC01EE85FF85E05CFF4F1C
:1006000020813181E054F0402F5F3F4F2F733070D5
:10061000DF01AE5BBF4F8D919C9111972817390771
:10062000D1F3E05CFF4F80819181E054F040E80F0E
:10063000F91F6083EE85FF85E05CFF4F31832083E7
:10064000EE89FF89208181E090E00F8C02C0880F45
:10065000991F0A94E2F7282B208381E089A3EC8973
:10066000FD8980818064808381E090E0DF91CF917B
:1006700008951092A8011092A70188EE93E0A0E0DF
:10068000B0E08093A9019093AA01A093AB01B0932D
:10069000AC0187E091E09093A6018093A5018DE1E4
:1006A00091E09093B2018093B10181E691E0909343
:1006B000B4018093B30185EC90E09093B6018093F0
:1006C000B50184EC90E09093B8018093B70180EC81
:1006D00090E09093BA018093B90181EC90E09093FF
:1006E000BC018093BB0182EC90E09093BE018093AB
:1006F000BD0186EC90E09093C0018093BF0184E03F
:100700008093C10183E08093C20187E08093C3019D
:1007100085E08093C40181E08093C5010895CF9363
:10072000DF930E9421010E947700CAEBD1E00E9472
:100730005F002097E1F30E94BA01F9CFCF92DF92D8
:10074000EF92FF920F931F93CF93DF937C016B0186
:100750008A01C0E0D0E00FC0D6016D916D01D701D4
:10076000ED91FC910190F081E02DC7010995C80F32
:10077000D91F015010400115110571F7CE01DF910D
:10078000CF911F910F91FF90EF90DF90CF90089540
:10079000EF92FF920F931F938C01DC01ED91FC917E
:1007A0000190F081E02D6DE009957C01D801ED917B
:1007B000FC910190F081E02DC8016AE009959C014F
:1007C0002E0D3F1DC9011F910F91FF90EF900895CD
:1007D000CF93DF93EC016115710519F420E030E04F
:1007E0000FC0DB010D900020E9F71197A61BB70B96
:1007F000E881F9810280F381E02DAD0109959C012A
:10080000C901DF91CF910895EF92FF920F931F934B
:100810007C010E94E8038C01C7010E94C803080FF5
:10082000191FC8011F910F91FF90EF900895A1E249
:100830001A2EAA1BBB1BFD010DC0AA1FBB1FEE1F5A
:10084000FF1FA217B307E407F50720F0A21BB30BA5
:10085000E40BF50B661F771F881F991F1A9469F721
:1008600060957095809590959B01AC01BD01CF017D
:100870000895EE0FFF1F0590F491E02D0994F89470
:02088000FFCFA8
:100882006D000100000000F9029E038F02C002A069
:0408920002E9020075
:00000001FF
